:100000000C941E030C9446030C9446030C94460374
:100010000C9446030C9446030C9446030C9446033C
:100020000C9446030C9446030C9446030C9446032C
:100030000C9446030C9446030C9446030C9446031C
:100040000C94970D0C9446030C94A30C0C947D0C0B
:100050000C9446030C9446030C9446030C944603FC
:100060000C94E10D0C94460307634236B79BD8A766
:100070001A39685618AEBAAB558C1D3CB7CC5763CD
:10008000BD6DEDFD753EF6177231BF000000803F7B
:1000900008000000BE922449123EABAAAA2ABECD97
:1000A000CCCC4C3E00000080BEABAAAAAA3E000009
:1000B0000000BF000000803F000000000008417801
:1000C000D3BB4387D1133D190E3CC3BD4282AD2B38
:1000D0003E68EC8276BED98FE1A93E4C80EFFFBE30
:1000E00001C4FF7F3F000000000000000000003E50
:1000F0005B4F5B3E3E6B4F6B3E1C3E7C3E1C183C98
:100100007E3C181C577D571C1C5E7F5E1C00183CF3
:100110001800FFE7C3E7FF0018241800FFE7DBE73C
:10012000FF30483A060E2629792926407F05050723
:10013000407F05253F5A3CE73C5A7F3E1C1C08087F
:100140001C1C3E7F14227F22145F5F005F5F060944
:100150007F017F006689956A606060606094A2FF9D
:10016000A29408047E040810207E201008082A1C8F
:1001700008081C2A08081E101010100C1E0C1E0C5B
:1001800030383E3830060E3E0E06000000000000FB
:10019000005F00000007000700147F147F14242A6A
:1001A0007F2A12231308646236495620500008073C
:1001B0000300001C2241000041221C002A1C7F1C5D
:1001C0002A08083E0808008070300008080808085F
:1001D000000060600020100804023E5149453E00C6
:1001E000427F400072494949462141494D33181424
:1001F000127F1027454545393C4A49493141211173
:1002000009073649494936464949291E0000140064
:100210000000403400000008142241141414141487
:10022000004122140802015909063E415D594E7CE5
:100230001211127C7F494949363E414141227F419A
:1002400041413E7F494949417F090909013E4141F8
:1002500051737F0808087F00417F41002040413FE3
:10026000017F081422417F404040407F021C027FF2
:100270007F0408107F3E4141413E7F090909063E47
:100280004151215E7F091929462649494932030116
:100290007F01033F4040403F1F2040201F3F403828
:1002A000403F631408146303047804036159494D03
:1002B00043007F4141410204081020004141417F39
:1002C00004020102044040404040000307080020AF
:1002D000545478407F2844443838444444283844AF
:1002E00044287F385454541800087E090218A4A4E6
:1002F0009C787F0804047800447D40002040403D05
:10030000007F1028440000417F40007C047804787E
:100310007C080404783844444438FC182424181811
:10032000242418FC7C08040408485454542404046D
:100330003F44243C4040207C1C2040201C3C40305A
:10034000403C44281028444C9090907C4464544C89
:1003500044000836410000007700000041360800E4
:1003600002010204023C2623263C1EA1A161123A8E
:100370004040207A385454555921555579412254DA
:10038000547842215554784020545579400C1E52DF
:100390007212395555555939545454593955545484
:1003A000580000457C410002457D420001457C40EB
:1003B0007D1211127DF0282528F07C54554500202F
:1003C00054547C547C0A097F4932494949323A44A1
:1003D00044443A324A4848303A4141217A3A42400C
:1003E0002078009DA0A07D3D4242423D3D404040DE
:1003F0003D3C24FF2424487E4943662B2FFC2F2BB1
:10040000FF0929F620C0887E090320545479410051
:1004100000447D413048484A32384040227A007AD0
:100420000A0A727D0D19317D2629292F28262929AE
:10043000292630484D4020380808080808080808D0
:10044000382F10C8ACBA2F102834FA00007B0000F7
:1004500008142A142222142A14085500550055AAFB
:1004600055AA55AAFF55FF55FF000000FF001010C8
:1004700010FF00141414FF001010FF00FF1010F004
:1004800010F0141414FC001414F700FF0000FF0017
:10049000FF1414F404FC141417101F10101F101F65
:1004A0001414141F00101010F0000000001F101092
:1004B00010101F10101010F010000000FF1010108E
:1004C000101010101010FF10000000FF140000FFAB
:1004D00000FF00001F10170000FC04F41414171094
:1004E000171414F404F40000FF00F7141414141487
:1004F0001414F700F7141414171410101F101F14FD
:100500001414F4141010F010F000001F101F00005D
:10051000001F14000000FC140000F010F01010FF89
:1005200010FF141414FF141010101F00000000F02E
:1005300010FFFFFFFFFFF0F0F0F0F0FFFFFF000003
:10054000000000FFFF0F0F0F0F0F3844443844FC2A
:100550004A4A4A347E02020606027E027E02635541
:100560004941633844443C04407E201E2006027EFC
:10057000020299A5E7A5991C2A492A1C4C7201720E
:100580004C304A4D4D303048784830BC625A463D78
:100590003E494949007E0101017E2A2A2A2A2A442D
:1005A000445F444440514A444040444A5140000062
:1005B000FF0103E080FF000008086B6B083612366D
:1005C0002436060F090F060000181800000010104E
:1005D000003040FF0101001F01011E00191D17120C
:1005E000003C3C3C3C000000000000000008000211
:1005F00001000003040700000000000000000000EC
:100600000000240027002A00010204081020408076
:10061000010204081020010204081020000000005C
:10062000250028002B00040404040404040402022E
:1006300002020202030303030303761011241FBE08
:10064000CFEFD8E0DEBFCDBF24E0A0E5B3E001C02E
:100650001D92AB3CB207E1F713E0A0E0B1E0E0EAA5
:10066000F1E302C005900D92A035B107D9F713E070
:10067000CEE1D3E004C02197FE010E94B014CD3139
:10068000D107C9F70E94F1100C94CE180C94000009
:10069000CF92DF92EF92FF920F931F93CF93DF934E
:1006A0006C017A018B01C0E0D0E0CE15DF0589F046
:1006B000D8016D918D01D601ED91FC910190F081F1
:1006C000E02DC6010995892B11F47E0102C0219607
:1006D000ECCFC701DF91CF911F910F91FF90EF9069
:1006E000DF90CF900895FC01918D828D981761F075
:1006F000828DDF01A80FB11D5D968C91928D9F5F59
:100700009F73928F90E008958FEF9FEF0895FC0103
:10071000918D828D981731F0828DE80FF11D858DB6
:1007200090E008958FEF9FEF0895FC01918D228D49
:10073000892F90E0805C9F4F821B91098F739927CE
:1007400008958CEE93E00E94950321E0892B09F433
:1007500020E0822F0895FC01848DDF01A80FB11DD8
:10076000A35ABF4F2C91848D90E001968F739927E7
:10077000848FA689B7892C93A089B1898C918064D4
:100780008C93938D848D981306C00288F389E02D95
:1007900080818F7D80830895EF92FF920F931F9346
:1007A000CF93DF93EC0181E0888F9B8D8C8D981324
:1007B00005C0E889F989808185FD24C0F62E0B8D5E
:1007C00010E00F5F1F4F0F731127E02E8C8DE81282
:1007D0000CC00FB607FCFACFE889F989808185FF44
:1007E000F5CFCE010E94AB03F1CF8B8DFE01E80F58
:1007F000F11DE35AFF4FF0820B8FEA89FB8980815C
:10080000806207C0EE89FF896083E889F989808169
:100810008064808381E090E0DF91CF911F910F9100
:10082000FF90EF900895CF93DF93EC01888D88239C
:10083000C9F0EA89FB89808185FD05C0A889B9894D
:100840008C9186FD0FC00FB607FCF5CF808185FF28
:10085000F2CFA889B9898C9185FFEDCFCE010E9496
:10086000AB03E7CFDF91CF91089580E090E0892B33
:1008700029F00E94A10381110C94000008953FB754
:10088000F89480919C0390919D03A0919E03B09158
:100890009F0326B5A89B05C02F3F19F00196A11D07
:1008A000B11D3FBFBA2FA92F982F8827820F911D06
:1008B000A11DB11DBC01CD0142E0660F771F881F4D
:1008C000991F4A95D1F708950F931F93CF93DF9304
:1008D000DC0155968C915597823071F0833009F187
:1008E000813009F08CC01496ED91FC911597E41BB2
:1008F000F50BE21BF30B20C01496ED91FC911597BC
:10090000CF01861B970BBC01615071091696ED91C2
:10091000FC911797CF01841B950BAC01421B530B25
:100920006EC01696ED91FC911797CF01861B970B21
:10093000BC0161507109FA0177FD1BC116968D91BA
:100940009C911797681779070CF013C1F7FF04C043
:100950002E0F3F1FE0E0F0E014968D919C911597CB
:10096000AF01420F531F841795071CF49C012E1BE7
:100970003F0B121613060CF0FCC0CB0177FD079657
:1009800043E0959587954A95E1F79695982F8827A6
:1009900097958795E80FF91FE050FF4F677077270D
:1009A00081E090E001C0880F6A95EAF7482F013096
:1009B000110541F088F00230110509F0DAC02E0F60
:1009C0003F1F15C02E0F3F1FE217F30709F4D1C0D8
:1009D0008081842B8193F8CF80952E0F3F1FE217E3
:1009E000F30709F4C6C0908198239193F8CFE217DA
:1009F000F30709F4BEC0808184278193F8CF77FD87
:100A0000B8C014968D919C911597681779070CF0D2
:100A1000B0C057FF04C0240F351F40E050E01696C9
:100A20008D919C911797FA01E20FF31F8E179F0784
:100A30001CF49C01241B350B121613060CF099C0F4
:100A4000A22F842F86958695869590E8899F600DC4
:100A5000711D1124FB01E050FF4F4770A9F198E090
:100A6000941B492F50E0EA01C35FDC4F88812917AE
:100A700090F4421B51092FEF30E002C035952795C5
:100A80004A95E2F782230130110541F068F0023007
:100A9000110589F06EC00130110519F42081822BF7
:100AA0000CC00130110520F480952081822305C0FF
:100AB0000230110531F4208182278083A91708F4C0
:100AC00058C0A91BE058FF4FA83048F1023011056B
:100AD00059F4EF018A2F988190959883C058DF4F81
:100AE00088508830C0F730C081E00130110509F02E
:100AF00080E08195EF019A2F8883C058DF4F98508E
:100B00009830D0F788EF8A0F86958695869590E87D
:100B1000899FE00DF11D1124E058FF4FA770AA2313
:100B200041F1B0E0AB5FBC4F8C910130110529F071
:100B300038F002301105D1F01CC09081892B18C00B
:100B400080959081892314C088EF8A0F86958695B9
:100B5000869590E8899FE00DF11D1124E058FF4F24
:100B6000A77039F0B0E0AB5FBC4F8C9190818927C2
:100B70008083DF91CF911F910F9108950F931F9361
:100B8000CF93DF93DC01FB0155968C915597823012
:100B900081F0833019F1813051F514968D919C913B
:100BA0001597BC01641B750BAB0141505109BF0186
:100BB00081C014966D917C911597CB018E1B9F0B74
:100BC000FC0116968D919C911797BC01641B750BC7
:100BD000AB0141505109E21BF30B09C016966D9110
:100BE0007C9117976E1B7F0B621B730B63C057FDC5
:100BF0001CC116968D919C911797481759070CF0B8
:100C000014C1F7FF04C02E0F3F1FE0E0F0E0149680
:100C10008D919C911597BF01620F731F86179707DF
:100C20001CF49C012E1B3F0B121613060CF0FDC08A
:100C3000CA0157FD079663E0959587956A95E1F798
:100C40009695982F882797958795E80FF91FE0507C
:100C5000FF4F4770552781E090E001C0880F4A950B
:100C6000EAF7482F0130110541F088F002301105F4
:100C700009F0DBC02E0F3F1F15C02E0F3F1FE217DC
:100C8000F30709F4D2C08081842B8193F8CF80953B
:100C90002E0F3F1FE217F30709F4C7C09081982376
:100CA0009193F8CFE217F30709F4BFC0808184273E
:100CB0008193F8CF57FDB9C014968D919C911597EB
:100CC000481759070CF0B1C077FF04C0260F371F33
:100CD00060E070E016968D919C911797FB01E20FF2
:100CE000F31F8E179F071CF49C01261B370B12164F
:100CF00013060CF09AC0A22F862F869586958695AE
:100D000090E8899F400D511D1124FA01E050FF4FDA
:100D10006770A9F198E0961B492F50E0EA01C35F84
:100D2000DC4F8881291790F4421B51092FEF30E0E6
:100D300002C0359527954A95E2F7822301301105C7
:100D400041F068F00230110589F06FC001301105E3
:100D500019F42081822B0CC00130110520F48095FC
:100D60002081822305C00230110531F420818227C1
:100D70008083A91708F459C0A91BE058FF4FA83079
:100D800048F10230110559F4EF018A2F98819095AE
:100D90009883C058DF4F88508830C0F731C081E059
:100DA0000130110509F080E08195EF019A2F8883C9
:100DB000C058DF4F98509830D0F788EF8A0F86954B
:100DC0008695869560E8869FE00DF11D1124E05818
:100DD000FF4FA770AA2349F1B0E0AB5FBC4F8C91E5
:100DE0000130110529F038F002301105D9F01DC08D
:100DF0009081892B03C0809590818923808315C0C1
:100E000088EF8A0F86958695869570E8879FE00D16
:100E1000F11D1124E058FF4FA77039F0B0E0AB5F2F
:100E2000BC4F8C9190818927E9CFDF91CF911F91A1
:100E30000F910895FC0177FD9AC080859185681710
:100E400079070CF094C057FD92C0828593854817AE
:100E500059070CF08CC08589823009F07CC08481F0
:100E60009581DC01A61BB70BBD016150710986811C
:100E70009781FC01E41BF50BAF01415051090AC0F9
:100E8000813041F484819581841B950BAB01BC01B9
:100E9000615071092130310529F008F12230310506
:100EA000E1F10895FA0157FD3796A3E0F595E7952E
:100EB000AA95E1F7F695FE2FEE27F795E7956E0FC9
:100EC0007F1FFB01E050FF4F4770552781E090E006
:100ED00001C0880F4A95EAF79081892B3AC0FA0140
:100EE00057FD379623E0F595E7952A95E1F7F695B6
:100EF000FE2FEE27F795E7956E0F7F1FFB01E05061
:100F0000FF4F4770552781E090E001C0880F4A9558
:100F1000EAF78095908189231CC0FA0157FD379626
:100F200083E0F595E7958A95E1F7F695FE2FEE2794
:100F3000F795E7956E0F7F1FFB01E050FF4F47705D
:100F4000552781E090E001C0880F4A95EAF790812B
:100F5000892780830895833009F092CF8681978115
:100F6000861B970BBA01AC014150510993CF0895EC
:100F700008952F923F924F925F926F927F928F923D
:100F80009F92AF92BF92CF92DF92EF92FF920F9318
:100F90001F93CF93DF93CDB7DEB76B970FB6F8945F
:100FA000DEBF0FBECDBF4C015A8349831F830E8322
:100FB000FD82EC82CB82DC0158964D915C91599771
:100FC0004115510509F0A5C018968D919C9119976E
:100FD000681779070CF05AC11A968D919C911B974E
:100FE000E981FA81E817F9070CF050C1D12CCB0147
:100FF0003B81F6E03F9F800D911D112418161906C4
:101000000CF044C1C60133E0880F991F3A95E1F70F
:1010100049815A81840F951F181619060CF036C1A4
:1010200057968C91811103C0203B08F02F5F55E04B
:10103000259F900111247E876D875B01212CC901BA
:10104000861B970B99878887A981BA811896BB87D9
:10105000AA87B5E02B1641F0E885F985EA0DFB1D5E
:10106000E651FF4F349001C0312C69807A80230112
:1010700030FE12C0D401ED91FC91BB81B13031F44E
:101080000480F581E02D2E813F8118C00684F7850C
:10109000E02DEE80FF801CC0EC81FD812E813F8120
:1010A000E217F307E1F0D401ED91FC91BB81B1307F
:1010B00051F40480F581E02D2C813D81A301B5011F
:1010C000C40109950CC00684F785E02DEC80FD80F5
:1010D00086019601A2016D857E85C401099536942D
:1010E000EFEF6E1A7E0A4C0C5D1C2A853B8562165A
:1010F000730609F0BDCF23943FEFA31AB30A4D85C1
:101100005E854C0D5D1D5E874D8756E02512A1CF93
:10111000BDC0FA0134963491329785919491231B86
:10112000A7E02A9F800D911D1124FA012591349189
:101130003A8B298BFC0125903490FC013296349136
:101140003887319644914C873196E491FC0135966D
:10115000A491319684915B81523050F06A2E0A2E10
:10116000000C7708E82F082E000CFF0BFB87EA879E
:10117000FB81CF2ED12C6C9C90016D9C300D7C9C02
:10118000300D1124A901460F571F588B4F871C8221
:10119000A12CEA2FAA0FFF0B3B016E0E7F1E588574
:1011A000650F711DDB01AE0FBF1FBF8BAE8BE981D9
:1011B000FA81E80FF11D87FDFA95F98FE88F9C857C
:1011C000A91608F063C08A2D90E04A855B85480F18
:1011D000591F4C9D90014D9D300D5C9D300D11248B
:1011E000A981BA81A20FB31FBE87AD877B8E6A8E9D
:1011F0004F845888BC81B619BB8BE88DF98DE80FF8
:10120000F91FFD8BEC8B8B89FA8D8F0F2A8D3B8D0F
:101210004E895F892417350799F1877041F4C10120
:101220000196E989FA89E20DF31DB4901C01B7FE1D
:101230001EC0D401ED91FC91BB81B13061F40480FA
:10124000F581E02D2E813F814C895D896A8D7B8DF2
:10125000C40109950CC00684F785E02DEE80FF805F
:10126000860196014D855E85B201C4010995BB0CCE
:10127000EA8DFB8D3196FB8FEA8F4C0C5D1CC3CF42
:101280005C818885580F5C83A39499CF6B960FB6C9
:10129000F894DEBF0FBECDBFDF91CF911F910F91AC
:1012A000FF90EF90DF90CF90BF90AF909F908F9086
:1012B0007F906F905F904F903F902F900895AF92E6
:1012C000BF92CF92EF92FF920F931F93CF93DF9332
:1012D000EC01262F888D998D009709F042C06A3065
:1012E00069F42C898E859F8538E0239F800D911DA0
:1012F00011249F878E871D861C86ACC06D3009F433
:10130000A9C08E898823C1F03C898C859D8546E0E3
:10131000349F800D911D11244885598584179507A8
:101320005CF01D861C868E859F85E8E03E9F800DC3
:10133000911D11249F878E87EA88FB880889198967
:101340004E855F856C857D85CC88CE010E94B9076E
:101350002C898C859D85F6E02F9F800D911D112491
:1013600041C06A3079F41D861C862C89FC013696B2
:10137000E4918E859F852E9F800D911D11249F875E
:101380008E8768C06D3009F465C0AC014C5F5F4F5B
:10139000FA013491631708F45DC03196E491E617C1
:1013A00008F458C0FA014491362F341BFC013296E0
:1013B000A590B490F7E03F9FA00CB11C1124F5015B
:1013C000329634913196E491332311F0E1110DC03E
:1013D000F5013496E4912C898C859D85E29F800DE2
:1013E000911D11249D878C8735C0F5013596449158
:1013F0005E89552311F16C89E32FF0E0E40FF11DB4
:1014000047FDFA956E9FD0016F9FB00D11244C855A
:101410005D854A0F5B1FE885F9854E175F076CF005
:101420001D861C86FC013696E4918E859F856E9FF5
:10143000800D911D11249F878E87EA88FB8808897B
:1014400019894E855F856C857D85CC88CE010E948B
:10145000B907BECF81E090E0DF91CF911F910F914E
:10146000FF90EF90CF90BF90AF900895EF92FF92D2
:101470000F931F93DC01ED91FC9111971A960D913A
:101480001C911B9718962D913C9119970684F7850E
:10149000E02D7B0140E050E060E070E009951F9195
:1014A0000F91FF90EF9008956F927F928F929F928D
:1014B000AF92BF92CF92DF92EF92FF920F931F9362
:1014C000CF93DF936C015A014801EB013B01620E9F
:1014D000731EC615D70574F4D601ED91FC910084F6
:1014E000F185E02D87019401A501BE01C601099592
:1014F0002196EFCFDF91CF911F910F91FF90EF9049
:10150000DF90CF90BF90AF909F908F907F906F9023
:101510000895EF92FF920F931F93DC01ED91FC91E0
:10152000260F371F215031090680F781E02D780101
:101530008A0109951F910F91FF90EF900895EF9206
:10154000FF920F931F937801DC01ED91FC91240F22
:10155000351F8901015011090680F781E02D9B019B
:1015600009951F910F91FF90EF9008956F927F92D0
:101570008F929F92AF92BF92CF92DF92EF92FF92A3
:101580000F931F93CF93DF93EC014B015A01690135
:101590003801E881F9810284F385E02D87010995FE
:1015A000E881F981A501460D571D4150510902847A
:1015B000F385E02D9601B401CE010995E881F9810A
:1015C0000084F185E02D9301A501B401CE010995B8
:1015D000E881F981C80CD91CB601615071090084F9
:1015E000F185E02D9301A501CE010995DF91CF9101
:1015F0001F910F91FF90EF90DF90CF90BF90AF9031
:101600009F908F907F906F9008952F923F924F926E
:101610005F926F927F928F929F92AF92BF92CF9282
:10162000DF92EF92FF920F931F93CF93DF9300D03F
:101630001F92CDB7DEB74C017B836A836A015901E3
:1016400017019801241B350B37FF03C031952195F5
:101650003109C5014A815B81841B950B97FF03C04B
:1016600091958195910951E059838217930714F060
:1016700019820BC09A2D8B2D5801092F182F9A8192
:101680008B81DB82CA82C92ED82E8A819B81A816C3
:10169000B9065CF49C2D8D2D6801092F182F9A81B5
:1016A0008B81BB82AA82A92EB82E2501AA81BB817B
:1016B0004A1A5B0A38016C187D0877FE03C07194E2
:1016C00061947108720157FE03C0BFEFEB1AFB0A69
:1016D000F594E794C016D1061CF00FEF1FEF1FC062
:1016E00001E010E01CC0D401ED91FC91B9810480AF
:1016F000F581E02D9101BB23C1F04A815B81B601E8
:10170000C4010995E618F708F7FE04C0C00ED11E03
:10171000E40CF51CEA81FB813196FB83EA834A8164
:101720005B81A416B506FCF604C0A6016A817B8124
:10173000E7CF0F900F900F90DF91CF911F910F91F6
:10174000FF90EF90DF90CF90BF90AF909F908F90E1
:101750007F906F905F904F903F902F90089585ED10
:101760008093BC008091BC0084FDFCCF1092C80324
:10177000089540917203262F30E0240F311D21324D
:101780003105DCF42091C8032430C9F4FC0180E069
:1017900090E0861758F4309172032191DC01A05B30
:1017A000BC4FA30FB11D2C930196F3CF8091720310
:1017B000680F6093720380E0089581E0089582E0ED
:1017C0000895089581E090E03091A1032091A00355
:1017D000321710F480E090E0919581959109089579
:1017E0008091A1039091A003891730F48F5F8093BB
:1017F000A10380E090E008958FEF9FEF089580911E
:10180000A00390E02091A103821B91090895CF923B
:10181000DF92EF92FF920F931F93CF93DF937C01A0
:10182000262F972F8A018091C903882391F0C62F14
:10183000D72F6E01C40ED51ECC15DD0571F0699150
:10184000D701ED91FC910190F081E02DC701099540
:10185000F3CF642F822F0E94B90BC801DF91CF9183
:101860001F910F91FF90EF90DF90CF900895CF934D
:10187000DF931F92CDB7DEB769832091C90322237E
:10188000D1F02091EB03203240F021E030E0FC0168
:101890003383228380E090E015C08091CA03E82F53
:1018A000F0E0E553FC4F998190838F5F8093CA03EA
:1018B0008093EB0305C061E0CE0101960E94B90B55
:1018C00081E090E00F90DF91CF9108950E94791808
:1018D0006115710579F0FB0101900020E9F731975E
:1018E000AF01461B570BDC01ED91FC910280F381A7
:1018F000E02D099480E090E008951F920F920FB6BA
:101900000F9211242F933F934F935F936F937F9385
:101910008F939F93AF93BF93EF93FF938CEE93E0DE
:101920000E94AB03FF91EF91BF91AF919F918F9177
:101930007F916F915F914F913F912F910F900FBECB
:101940000F901F9018951F920F920FB60F921124AF
:101950002F938F939F93EF93FF93E091FC03F0916C
:10196000FD038081E0910204F091030482FD12C026
:101970009081809105048F5F8F73209106048217F8
:1019800051F0E0910504F0E0E451FC4F958F809315
:10199000050401C08081FF91EF919F918F912F915C
:1019A0000F900FBE0F901F90189590E0FC01E6512C
:1019B000FA4F3491FC01E85FF94F2491FC01EA5D94
:1019C000F94FE491EE2309F43BC0332339F133306E
:1019D00091F038F43130A9F0323001F584B58F7DC3
:1019E00012C0373091F03830A1F03430B9F4809122
:1019F00080008F7D03C0809180008F77809380006E
:101A00000DC084B58F7784BD09C08091B0008F77F9
:101A100003C08091B0008F7D8093B000F0E0EE0FA6
:101A2000FF1FE45EF94FA591B4918FB7F894EC9144
:101A3000611103C020952E2301C02E2B2C938FBF44
:101A40000895CF93DF9390E0FC01E85FF94F249174
:101A5000FC01EA5DF94F8491882361F190E0880FE1
:101A6000991FFC01E250FA4FC591D491FC01E45E4C
:101A7000F94FA591B491611109C09FB7F89488817D
:101A8000209582238883EC912E230BC0623061F471
:101A90009FB7F8943881822F809583238883EC91B7
:101AA0002E2B2C939FBF06C08FB7F894E8812E2B66
:101AB00028838FBFDF91CF9108958F929F92AF922D
:101AC000BF92CF92DF92EF92FF926B017C010E9456
:101AD0003F044B015C01C114D104E104F104F1F0B5
:101AE0000E943F04DC01CB0188199909AA09BB09AE
:101AF000883E9340A105B10570F321E0C21AD108D8
:101B0000E108F10888EE880E83E0981EA11CB11C44
:101B1000C114D104E104F10419F7DDCFFF90EF9077
:101B2000DF90CF90BF90AF909F908F9008951F92BD
:101B30000F920FB60F9211242F933F938F939F9381
:101B4000AF93BF938091980390919903A0919A03CA
:101B5000B0919B033091970323E0230F2D3720F49E
:101B60000196A11DB11D05C026E8230F0296A11DF7
:101B7000B11D209397038093980390939903A093AA
:101B80009A03B0939B0380919C0390919D03A09135
:101B90009E03B0919F030196A11DB11D80939C03EC
:101BA00090939D03A0939E03B0939F03BF91AF9129
:101BB0009F918F913F912F910F900FBE0F901F908B
:101BC00018951F920F920FB60F9211242F933F93E7
:101BD0004F935F936F937F938F939F93AF93BF9335
:101BE000EF93FF938091B900887F803609F49CC001
:101BF00068F5883209F45BC090F4803109F454C070
:101C000038F4882309F4F6C0883009F44DC0F6C0D2
:101C1000883109F44CC0803209F45DC0EFC08034D3
:101C200009F468C048F4803309F455C0883309F0DA
:101C3000E5C08093C603D8C0803509F44FC088350D
:101C400009F45DC0883409F0D9C0D6C0883909F4D8
:101C5000C7C0A8F4883709F467C038F4883609F497
:101C600063C0803709F460C0C9C0883809F4B8C0BF
:101C7000803909F45FC0803809F0C0C05BC0803B88
:101C800009F486C038F4803A09F466C0883A09F449
:101C90007FC0B4C0803C09F4A7C0883C09F4A4C04C
:101CA000883B09F48AC0AAC08091A30310C0909118
:101CB000C5038091C403981770F5E091C50381E0D6
:101CC0008E0F8093C503F0E0EC55FC4F808180932C
:101CD000BB0085EC86C08093C6038EC0E091C5032F
:101CE00081E08E0F8093C5038091BB00F0E0EC553E
:101CF000FC4F80839091C5038091C4036EC0E09136
:101D0000C50381E08E0F8093C5038091BB00F0E096
:101D1000EC55FC4F80838091C70381116DC081E039
:101D20008093A20384EA61C083E08093C803109289
:101D30009603CFCF80919603803208F051C0E09196
:101D4000960381E08E0F809396038091BB00F0E0B4
:101D5000EA58FC4F8083BDCF85EC8093BC00109285
:101D6000C80380919603803230F4E0919603F0E04E
:101D7000EA58FC4F10826091960370E0E091740382
:101D8000F091750386E793E009951092960336C0AB
:101D900084E08093C8031092730310927203E09161
:101DA0007003F0917103099580917203811105C050
:101DB00081E08093720310925003E091730381E0FD
:101DC0008E0F80937303F0E0E05BFC4F8081809383
:101DD000BB009091730380917203981708F479CF38
:101DE00085E88093BC000AC085EC8093BC0010920B
:101DF000C80304C01092C6030E94AF0BFF91EF917D
:101E0000BF91AF919F918F917F916F915F914F9112
:101E10003F912F910F900FBE0F901F90189520911A
:101E2000EB0390918A04213208F04AC08091C803E4
:101E30008111FCCF32E03093C80331E03093C70307
:101E40003FEF3093C6031092C5032093C403ABEC5D
:101E5000B3E044EA53E0FA013E2F341B321718F482
:101E60003D913193F9CF1092A3032091A303990FD1
:101E7000922B9093A3039091A203913061F410925E
:101E8000A2039091A3039093BB009091BC0093FD9B
:101E9000F8CF95EC01C095EE9093BC009091C803EB
:101EA0009230E1F39091C6039F3F79F08091C60391
:101EB000803241F08091C603803331F084E005C068
:101EC00081E003C082E001C083E01092CA03109257
:101ED000EB031092C90308959091BE04992339F041
:101EE0008EBD00000DB407FEFDCF8EB5089528E02D
:101EF00030E040E8E091C104F091C204508190913B
:101F0000C804909595239083E091BF04F091C0049C
:101F10009091C704542F582319F05081952B03C07A
:101F20005081909595239083E091C104F091C20473
:101F300050819091C804952B90834695215031098A
:101F4000C9F60895CF93C82F8091B9048F3F59F1F6
:101F5000E091C304F091C40480819091C904982B4E
:101F60009083E091C504F091C60420819091CA0449
:101F7000909592239083E091C304F091C404208152
:101F80009091C9049095922390838C2F0E946C0F9E
:101F9000E091C304F091C40490818091C904892B1D
:101FA0008083CF9108958091B70491E09093C90305
:101FB00080938A041092CA031092EB0360E08BE8CE
:101FC00094E00E94370C6C2F8BE894E00E94370C51
:101FD000CF910C940F0F4F925F926F927F928F92DE
:101FE0009F92AF92BF92CF92DF92EF92FF920F93A8
:101FF0001F93CF93DF93CDB7DEB7A1970FB6F894B9
:10200000DEBF0FBECDBF8C016B01770FEE08FF085E
:10201000F7FE2FC0DC01ED91FC910190F081E02DE5
:102020006DE209955C0122273327A9012C193D098E
:102030004E095F0919A2FE01B1967F019AE0492E6F
:10204000512C612C712CCA01B901A30192010E948B
:102050009D18605DD7016E937D0121153105410505
:10206000510589F7BD01C8010E94680CA80EB91E70
:102070001FC0A701960119A2FE01B1967F018AE057
:10208000882E912CA12CB12CCA01B901A501940173
:102090000E949D18605DD7016E937D012115310569
:1020A0004105510589F7BD01C8010E94680C5C011A
:1020B0006DE473E0C8010E94680C8A0D9B1DA19617
:1020C0000FB6F894DEBF0FBECDBFDF91CF911F9149
:1020D0000F91FF90EF90DF90CF90BF90AF909F90C7
:1020E0008F907F906F905F904F900895CF93ECEE1C
:1020F000F3E01382128288EE93E0A0E0B0E08483E4
:102100009583A683B78329E133E03183208325ECCF
:1021100030E03587248724EC30E03787268720ECB1
:1021200030E0318B208B21EC30E0338B228B22ECA2
:1021300030E0358B248B26EC30E0378B268B118EEC
:10214000128E138E148EEBE8F4E0138212828483D5
:102150009583A683B78389E293E091838083EDE939
:10216000F4E01382128220E830E03583248380E299
:1021700090E0978386833187208793878287158AAB
:102180001586148617861686C1E0C48B8FEF9FEFE5
:10219000938B828B918B808BC68B178A118E108EBE
:1021A00089E393E0918380838FEF848F80A3868F70
:1021B000858F84E0878FE7E9F4E08EE090E09183FB
:1021C000808388E394E0A0E0B0E082839383A483DB
:1021D000B58360E08EE00E94210DC0930003CF9193
:1021E0000895CF93DF93CDB7DEB7E2970FB6F8949B
:1021F000DEBF0FBECDBF789484B5826084BD84B548
:10220000816084BD85B5826085BD85B5816085BDF1
:1022100080916E00816080936E00109281008091A9
:102220008100826080938100809181008160809331
:102230008100809180008160809380008091B10056
:1022400084608093B1008091B00081608093B00081
:1022500080917A00846080937A0080917A00826015
:1022600080937A0080917A00816080937A008091D7
:102270007A00806880937A001092C100E091FC039C
:10228000F091FD0312E01083E091F803F091F9035F
:102290001082E091FA03F091FB038FEC808310929F
:1022A0000404E0910004F091010486E08083E09151
:1022B000FE03F091FF03808180618083E091FE0343
:1022C000F091FF03808188608083E091FE03F091AC
:1022D000FF03808180688083E091FE03F091FF031B
:1022E00080818F7D808361E08DE00E94210D60E020
:1022F0008DE00E94D50C1093B8048DE38093B70451
:102300008091B9048F3F09F4BDC061E08091BB04A6
:102310000E94210D61E08091BD040E94210D8091F9
:10232000BD04082E000C990BFC01EA5DF94FE49105
:10233000F0E0EE0FFF1FE45EF94F259134913093EA
:10234000C4042093C304FC01E85FF94FE491E093D7
:10235000C9048091BB04082E000C990BFC01EA5DB6
:10236000F94FE491F0E0EE0FFF1FE45EF94F259185
:1023700034913093C6042093C504FC01E85FF94F03
:10238000E491E093CA048091BE0481113EC061E0F3
:102390008091B9040E94210D61E08091BA040E94ED
:1023A000210D8091BA04082E000C990BFC01EA5D06
:1023B000F94FE491F0E0EE0FFF1FE45EF94F259135
:1023C00034913093C2042093C104FC01E85FF94FBB
:1023D000E491E093C8048091B904082E000C990B95
:1023E000FC01EA5DF94FE491F0E0EE0FFF1FE45EBF
:1023F000F94F259134913093C0042093BF04FC0120
:10240000E85FF94FE491E093C7048091BE0488230C
:1024100009F45FC01FB7F89480918904811127C027
:10242000E0E3F6E08491E2E1F6E09491E82FF0E059
:10243000EE0FFF1FE250FA4FA591B491EC91E92302
:1024400021F461E08AE00E94D50C61E08AE00E94FC
:10245000210D8CB580618CBD8CB580648CBD61E034
:102460008DE00E94210D61E08BE00E94210D8091A2
:1024700089048F5F809389041FBF80E58CBD81E054
:102480008DBD27C01092A1031092A0031092CA0321
:102490001092EB031092C80381E08093C70310925F
:1024A000A20361E082E10E94D50C61E083E10E9419
:1024B000D50C8091B9008E7F8093B9008091B900CE
:1024C0008D7F8093B90088E48093B80085E4809381
:1024D000BC008091BC0487FD1EC061E00E94210DFC
:1024E00061E08091BC040E94D50C61E070E080E066
:1024F00090E00E945D0D60E08091BC040E94D50CCC
:102500006AE070E080E090E00E945D0D61E0809103
:10251000BC040E94D50C8EEA0E94A20F85ED0E9499
:10252000A20F80E80E94A20F88EA0E94A20F8FE10A
:102530000E94A20F83ED0E94A20F80E00E94A20FD2
:1025400080E40E94A20F8DE80E94A20F84E10E9405
:10255000A20F80E20E94A20F80E00E94A20F81EAF7
:102560000E94A20F88EC0E94A20F8AED0E94A20F87
:1025700082E00E94A20F81E80E94A20F8FE80E94D1
:10258000A20F89ED0E94A20F81EF0E94A20F8BED96
:102590000E94A20F80E40E94A20F84EA0E94A20F70
:1025A00086EA0E94A20F8EE20E94A20F8FEA0E948A
:1025B000A20F84E08093B10481E090E09093B00496
:1025C0008093AF049093AE048093AD0480E092E0DA
:1025D000E0E0F1E0DF019C011D9221503040E1F785
:1025E0005E0133E3A30EB11C22242394CC24CA94AD
:1025F00023E0D22EE12CF12C68EC70E080E090E03A
:102600000E945D0DFE013196809197048E3008F096
:102610008E5087702091000390E4299F900111242F
:10262000822B80937C0080917A00806480937A0072
:1026300080917A0086FDFCCF80917800209179000E
:1026400090E0922B81939193EA15FB05E9F688E1DE
:1026500090E0FE01319620E030E0A1E02817390734
:102660008CF44191519160817181641775073CF43C
:10267000DF0112976D937C9351834083A0E02F5F1D
:102680003F4FECCFA11102C0019719F78091990437
:1026900090919A04A0919B04B0919C048833E4E04B
:1026A0009E07A105B105F9F4A98DBA8D28E833E19B
:1026B0000E94A914A70196010E947E18CA01B901BF
:1026C0000E94D21520E030E04AE754E40E94281529
:1026D0002EE03DE24AE95FEB0E94F41622EF32ED74
:1026E0004DED51E424C0863BFEE49F07A105B105F2
:1026F00009F5A98DBA8D28E833E10E94A914A70134
:1027000096010E947E18CA01B9010E94D21520E0EC
:1027100030E04AE754E40E94281521EE3AE744E904
:102720005FEB0E94F4162AEF3EE741E752E40E9475
:10273000871669C08E3A21E09207A105B105F9F428
:10274000A98DBA8D28E833E10E94A914A70196014A
:102750000E947E18CA01B9010E94D21520E030E023
:102760004AE754E40E9428152BE83CE647E85FEB73
:102770000E94F4162EEA37E441E451E4D8CF8439BC
:102780009848A140B10509F042C0A98DBA8D28E84A
:1027900033E10E94A914A70196010E947E18CA0184
:1027A000B9010E94D2152B013C0120E030E04FEA34
:1027B00054E40E94231587FD2AC020E030E44EE453
:1027C00055E4C301B2010E948216181604F120E0FC
:1027D00030EA4CE854E4C301B2010E94B61420E090
:1027E00030E04AE754E40E94281520E030E849E050
:1027F00053E40E9428159B01AC0160E070E080E882
:102800009FE30E9428150E949A158B0102C000E0E8
:1028100010E080E092E0E0E0F1E0DF019C011D9239
:1028200021503040E1F78CE390E09093AA0480932C
:10283000A9041092AC041092AB04B8018DE994E0A5
:102840000E94EB0F81E20E94A20F80E00E94A20F83
:102850008FE70E94A20F82E20E94A20F80E00E94F6
:10286000A20F83E00E94A20F8091B9048F3FA1F1D3
:10287000E091C304F091C40490818091C904892B34
:102880008083E091C504F091C60490818091CA04D0
:10289000892B8083E091C304F091C40490818091DE
:1028A000C90480958923808390E0892E91E0992E38
:1028B000D4018D914D010E946C0FB0E08B16B3E0F6
:1028C0009B06B1F7E091C304F091C404908180911C
:1028D000C904892B808335C03090B8008CE0809388
:1028E000B80080E0882E81E0982E8091B704209275
:1028F000C90380938A041092CA031092EB0360E428
:102900008BE894E00E94370C412C512CF401E40D2B
:10291000F51D60818BE894E00E94370CEFEF4E1AB2
:102920005E0AF0E14F16510489F70E940F0F20E173
:10293000820E911C30E0831633E09306B1F630929C
:10294000B800B8018CEE93E00E94EB0F0E943504B2
:1029500053CE0E94BF18B7FF0895821B930B0895B2
:10296000EE0FFF1F0590F491E02D09945058BB27FE
:10297000AA270E94CE140C9448160E943A1638F0EA
:102980000E94411620F039F49F3F19F426F40C946C
:1029900037160EF4E095E7FB0C943116E92F0E94F0
:1029A000591658F3BA17620773078407950720F082
:1029B00079F4A6F50C947B160EF4E0950B2EBA2F45
:1029C000A02D0B01B90190010C01CA01A001112435
:1029D000FF27591B99F0593F50F4503E68F11A16E1
:1029E000F040A22F232F342F4427585FF3CF469572
:1029F00037952795A795F0405395C9F77EF41F1694
:102A0000BA0B620B730B840BBAF09150A1F0FF0F5D
:102A1000BB1F661F771F881FC2F70EC0BA0F621F49
:102A2000731F841F48F4879577956795B795F79539
:102A30009E3F08F0B0CF9395880F08F09927EE0FCE
:102A40009795879508950E940D1608F481E00895E2
:102A50000E943C150C9448160E94411658F00E94A2
:102A60003A1640F029F45F3F29F00C9431165111C9
:102A70000C947C160C9437160E94591668F399230F
:102A8000B1F3552391F3951B550BBB27AA2762176A
:102A90007307840738F09F5F5F4F220F331F441F77
:102AA000AA1FA9F335D00E2E3AF0E0E832D09150AB
:102AB0005040E695001CCAF72BD0FE2F29D0660F98
:102AC000771F881FBB1F261737074807AB07B0E8DB
:102AD00009F0BB0B802DBF01FF2793585F4F3AF0E1
:102AE0009E3F510578F00C9431160C947C165F3F94
:102AF000E4F3983ED4F3869577956795B795F79567
:102B00009F5FC9F7880F911D9695879597F908954E
:102B1000E1E0660F771F881FBB1F621773078407EA
:102B2000BA0720F0621B730B840BBA0BEE1F88F7F9
:102B3000E09508950E94A1156894B1110C947C163B
:102B400008950E94611688F09F5798F0B92F992731
:102B5000B751B0F0E1F0660F771F881F991F1AF088
:102B6000BA95C9F714C0B13091F00E947B16B1E05C
:102B700008950C947B16672F782F8827B85F39F05B
:102B8000B93FCCF3869577956795B395D9F73EF421
:102B900090958095709561957F4F8F4F9F4F0895C9
:102BA000E89409C097FB3EF49095809570956195E7
:102BB0007F4F8F4F9F4F9923A9F0F92F96E9BB279D
:102BC0009395F695879577956795B795F111F8CF19
:102BD000FAF4BB0F11F460FF1BC06F5F7F4F8F4F84
:102BE0009F4F16C0882311F096E911C0772321F07A
:102BF0009EE8872F762F05C0662371F096E8862F12
:102C000070E060E02AF09A95660F771F881FDAF768
:102C1000880F9695879597F90895990F0008550F95
:102C2000AA0BE0E8FEEF16161706E807F907C0F052
:102C300012161306E407F50798F0621B730B840B5A
:102C4000950B39F40A2661F0232B242B252B21F434
:102C500008950A2609F4A140A6958FEF811D811DD4
:102C6000089597F99F6780E870E060E008959FEF0E
:102C700080EC089500240A94161617061806090613
:102C8000089500240A9412161306140605060895E2
:102C9000092E0394000C11F4882352F0BB0F40F46A
:102CA000BF2B11F460FF04C06F5F7F4F8F4F9F4FAA
:102CB000089557FD9058440F551F59F05F3F71F02C
:102CC0004795880F97FB991F61F09F3F79F0879593
:102CD0000895121613061406551FF2CF4695F1DF1C
:102CE00008C0161617061806991FF1CF86957105AC
:102CF000610508940895E894BB2766277727CB01E0
:102D000097F908950E940D1608F48FEF08950E9418
:102D10009A160C9448160E943A1638F00E944116F2
:102D200020F0952311F00C9431160C9437161124D1
:102D30000C947C160E94591670F3959FC1F3950F61
:102D400050E0551F629FF001729FBB27F00DB11D2F
:102D5000639FAA27F00DB11DAA1F649F6627B00DBF
:102D6000A11D661F829F2227B00DA11D621F739FA8
:102D7000B00DA11D621F839FA00D611D221F749FB6
:102D80003327A00D611D231F849F600D211D822FFD
:102D9000762F6A2F11249F5750409AF0F1F0882324
:102DA0004AF0EE0FFF1FBB1F661F771F881F915051
:102DB0005040A9F79E3F510580F00C9431160C94B9
:102DC0007C165F3FE4F3983ED4F38695779567953C
:102DD000B795F795E7959F5FC1F7FE2B880F911D7B
:102DE0009695879597F90895FA01EE0FFF1F309693
:102DF00021053105A1F16115710561F48038BFE34A
:102E00009B0749F168949038810561F08038BFEFE5
:102E10009B0741F099234AF5FF3FE1053105210564
:102E200019F1E8940894E795D901AA2329F4AB2F66
:102E3000BE2FF85FD0F310C0FF5F70F4A695E0F7E7
:102E4000F73950F019F0FF3A38F49F779F930DD07F
:102E50000F9007FC9058089546F00C94371660E0E8
:102E600070E080E89FE308954FE79F775F934F936B
:102E70003F932F930E94EF172F913F914F915F91B6
:102E80000E9487160C944C1729F416F00C943116F6
:102E90000C947B160C9437160E946116A8F3963892
:102EA000A0F707F80F92E8942BE33AEA48EB5FE7C4
:102EB0000E949D160F920F920F924DB75EB70F9220
:102EC0000E943718E8E6F0E00E947E174F915F916C
:102ED000EF91FF91E595EE1FFF1F49F0FE57E06867
:102EE0004427EE0F441FFA95E1F74195550B0E94D8
:102EF000B1170F9007FE0C94A5170895DF93CF9399
:102F00001F930F93FF92EF92DF927B018C016894E5
:102F100006C0DA2EEF010E949A16FE01E894A591F0
:102F20002591359145915591A6F3EF010E94CE145C
:102F3000FE019701A801DA9469F7DF90EF90FF9006
:102F40000F911F91CF91DF9108959B01AC0160E03B
:102F500070E080E89FE30C9428150C9431160C94D3
:102F60006B180E946116D8F39923C9F3940F511D71
:102F7000A3F39150504094F059F0882332F0660F3B
:102F8000771F881F91505040C1F79E3F51052CF785
:102F9000880F911D9695879597F908955F3FACF03E
:102FA000983E9CF0BB27869577956795B79508F472
:102FB000B1609395C1F7BB0F58F711F460FFE8CFEC
:102FC0006F5F7F4F8F4F9F4FE3CF0C947C1616F0AF
:102FD0000C946B180C94371668940C9431160E945C
:102FE0006116A8F39923C1F3AEF3DF93CF931F9338
:102FF0000F93FF92C92FDD2788232AF02197660FB0
:10300000771F881FDAF720E030E040E85FEB9FE3AE
:10301000883920F0803E38F021968F770E94B714CF
:10302000E0E9F0E004C00E94B714EDEBF0E00E948C
:103030007E178B01BE01EC01FB2E6F577109759550
:10304000771F880B990B0E94D21528E132E741E3E4
:103050005FE30E949A16AF2D9801AE01FF900F9189
:103060001F91CF91DF910E94CE140C944816FA0163
:10307000DC01AA0FBB1F9B01AC01BF5728F422271C
:1030800033274427507820C0B75190F4AB2F002449
:10309000469537952795011CA395D2F3002071F032
:1030A000220F331F441FB395DAF30ED00C94B614DD
:1030B00061307105A0E88A07B94630F49B01AC0184
:1030C0006627772788279078309621F020833183F0
:1030D0004283538308959F3F31F0915020F48795A8
:1030E00077956795B795880F911D9695879597F970
:1030F000089581E090E0F8940C94CE18052E97FB8B
:103100001EF400940E94951857FD07D00E949D1848
:1031100007FC03D04EF40C949518509540953095CB
:1031200021953F4F4F4F5F4F089590958095709533
:1031300061957F4F8F4F9F4F0895A1E21A2EAA1BD2
:10314000BB1BFD010DC0AA1FBB1FEE1FFF1FA21757
:10315000B307E407F50720F0A21BB30BE40BF50B54
:10316000661F771F881F991F1A9469F760957095DD
:10317000809590959B01AC01BD01CF010895A29F60
:10318000B001B39FC001A39F700D811D1124911D3B
:10319000B29F700D811D1124911D0895F894FFCFE9
:1031A000000000000000000000000000000000001F
:1031B000000000000000000000000000000000000F
:1031C00000000000000000000000000000000000FF
:1031D000000000000000000000000000000000806F
:1031E00080800000000000000000000000000000DF
:1031F000008080C0C000000000000000000000004F
:1032000000000000000000000000000000000000BE
:1032100000000000000000000000000000000000AE
:10322000000000000000000000000000000000009E
:103230000000000080C0E0F0F8FCF8E000000000B2
:1032400000000000000000000000000000808080FE
:10325000808000808000000000808080808000FFEF
:10326000FFFF000000008080808000008080000060
:1032700080FFFF80800080800080808080008080D0
:103280000000000000808000008C8E84000080F828
:10329000F8F88000000000000000000000000000BE
:1032A000F0F0F0F0F0F0F0F0F0F0F0F0E0E0C080DE
:1032B00000E0FCFEFFFFFF7FFFFFFFFFFF000000BD
:1032C0000000000000000000000000FEFFC7010138
:1032D000010183FFFF00007CFEC70101010183FFA4
:1032E000FFFF0038FEC78301010183C7FFFF000015
:1032F00001FFFF010100FFFF0701010100007FFF47
:1033000080000000FFFF7F0000FFFFFF000001FFC3
:10331000FFFF0100000000000000000000000000AE
:10332000030F3F7F7FFFFFFFFFFFFFFFE7C7C78F51
:103330008F9FBFFFFFC3C0F0FFFFFFFFFFFCFCFC40
:10334000FCFCFCFCFCF8F8F0F0E0C0000103030317
:103350000303010303000000000103030303010151
:103360000301000000010303030301010303000044
:103370000003030000000303000000000000000140
:103380000303030303010000000103010000000325
:103390000301000000000000000000000000000029
:1033A0000101000000000103070F1F3F7F0080C0E4
:1033B000E0F0F8FCFE00000000CC03480395037326
:1033C000038703130400000000370C070CFF0BF009
:1033D0000BE20BE10B000000005F0948031A070530
:1033E0000B6404BE05B60A540A360AB8070D0A0073
:00000001FF
